{
  "_format": "hh-sol-artifact-1",
  "contractName": "EthereumWave",
  "sourceName": "contracts/EthereumWave.sol",
  "abi": [
    {
      "inputs": [],
      "stateMutability": "nonpayable",
      "type": "constructor"
    },
    {
      "anonymous": false,
      "inputs": [
        {
          "indexed": true,
          "internalType": "address",
          "name": "from",
          "type": "address"
        },
        {
          "indexed": false,
          "internalType": "string",
          "name": "message",
          "type": "string"
        },
        {
          "indexed": false,
          "internalType": "uint256",
          "name": "timestamp",
          "type": "uint256"
        }
      ],
      "name": "NewWave",
      "type": "event"
    },
    {
      "inputs": [],
      "name": "getAllWaves",
      "outputs": [
        {
          "components": [
            {
              "internalType": "address",
              "name": "waver",
              "type": "address"
            },
            {
              "internalType": "string",
              "name": "message",
              "type": "string"
            },
            {
              "internalType": "uint256",
              "name": "timeStamp",
              "type": "uint256"
            }
          ],
          "internalType": "struct EthereumWave.Wave[]",
          "name": "",
          "type": "tuple[]"
        }
      ],
      "stateMutability": "view",
      "type": "function"
    },
    {
      "inputs": [],
      "name": "getTotalWaves",
      "outputs": [
        {
          "internalType": "uint256",
          "name": "",
          "type": "uint256"
        }
      ],
      "stateMutability": "view",
      "type": "function"
    },
    {
      "inputs": [],
      "name": "totalWaves",
      "outputs": [
        {
          "internalType": "uint256",
          "name": "",
          "type": "uint256"
        }
      ],
      "stateMutability": "view",
      "type": "function"
    },
    {
      "inputs": [
        {
          "internalType": "string",
          "name": "_message",
          "type": "string"
        }
      ],
      "name": "wave",
      "outputs": [],
      "stateMutability": "nonpayable",
      "type": "function"
    },
    {
      "inputs": [
        {
          "internalType": "uint256",
          "name": "",
          "type": "uint256"
        }
      ],
      "name": "waves",
      "outputs": [
        {
          "internalType": "address",
          "name": "waver",
          "type": "address"
        },
        {
          "internalType": "string",
          "name": "message",
          "type": "string"
        },
        {
          "internalType": "uint256",
          "name": "timeStamp",
          "type": "uint256"
        }
      ],
      "stateMutability": "view",
      "type": "function"
    }
  ],
  "bytecode": "0x60806040523480156200001157600080fd5b506200005d6040518060400160405280601581526020017f5468697320697320457468657265756d205761766500000000000000000000008152506200006360201b620004ff1760201c565b620001f7565b62000103816040516024016200007a919062000170565b6040516020818303038152906040527f41304fac000000000000000000000000000000000000000000000000000000007bffffffffffffffffffffffffffffffffffffffffffffffffffffffff19166020820180517bffffffffffffffffffffffffffffffffffffffffffffffffffffffff83818316178352505050506200010660201b60201c565b50565b60008151905060006a636f6e736f6c652e6c6f679050602083016000808483855afa5050505050565b60006200013c8262000194565b6200014881856200019f565b93506200015a818560208601620001b0565b6200016581620001e6565b840191505092915050565b600060208201905081810360008301526200018c81846200012f565b905092915050565b600081519050919050565b600082825260208201905092915050565b60005b83811015620001d0578082015181840152602081019050620001b3565b83811115620001e0576000848401525b50505050565b6000601f19601f8301169050919050565b610de580620002076000396000f3fe608060405234801561001057600080fd5b50600436106100575760003560e01c8063291bcab31461005c578063449d46c01461007a5780639a2cdc0814610096578063bd43a908146100b4578063c781267a146100d2575b600080fd5b610064610104565b6040516100719190610aec565b60405180910390f35b610094600480360381019061008f9190610819565b61010a565b005b61009e610281565b6040516100ab9190610aec565b60405180910390f35b6100bc6102cc565b6040516100c99190610a48565b60405180910390f35b6100ec60048036038101906100e7919061085a565b61041d565b6040516100fb93929190610a0a565b60405180910390f35b60005481565b600160008082825461011c9190610bc3565b925050819055506101626040518060400160405280600d81526020017f257320686173207761766564210000000000000000000000000000000000000081525033610598565b600160405180606001604052803373ffffffffffffffffffffffffffffffffffffffff16815260200183815260200142815250908060018154018082558091505060019003906000526020600020906003020160009091909190915060008201518160000160006101000a81548173ffffffffffffffffffffffffffffffffffffffff021916908373ffffffffffffffffffffffffffffffffffffffff16021790555060208201518160010190805190602001906102219291906106f9565b506040820151816002015550503373ffffffffffffffffffffffffffffffffffffffff167f6728ef66814a55b797863bf8ffcd954b19cbca4ed4f0e6cf04c980705fd82c368242604051610276929190610abc565b60405180910390a250565b60006102c46040518060400160405280601781526020017f5765206861766520256420746f74616c20776176657321000000000000000000815250600054610634565b600054905090565b60606001805480602002602001604051908101604052809291908181526020016000905b8282101561041457838290600052602060002090600302016040518060600160405290816000820160009054906101000a900473ffffffffffffffffffffffffffffffffffffffff1673ffffffffffffffffffffffffffffffffffffffff1673ffffffffffffffffffffffffffffffffffffffff16815260200160018201805461037990610c97565b80601f01602080910402602001604051908101604052809291908181526020018280546103a590610c97565b80156103f25780601f106103c7576101008083540402835291602001916103f2565b820191906000526020600020905b8154815290600101906020018083116103d557829003601f168201915b50505050508152602001600282015481525050815260200190600101906102f0565b50505050905090565b6001818154811061042d57600080fd5b90600052602060002090600302016000915090508060000160009054906101000a900473ffffffffffffffffffffffffffffffffffffffff169080600101805461047690610c97565b80601f01602080910402602001604051908101604052809291908181526020018280546104a290610c97565b80156104ef5780601f106104c4576101008083540402835291602001916104ef565b820191906000526020600020905b8154815290600101906020018083116104d257829003601f168201915b5050505050908060020154905083565b610595816040516024016105139190610a6a565b6040516020818303038152906040527f41304fac000000000000000000000000000000000000000000000000000000007bffffffffffffffffffffffffffffffffffffffffffffffffffffffff19166020820180517bffffffffffffffffffffffffffffffffffffffffffffffffffffffff83818316178352505050506106d0565b50565b61063082826040516024016105ae929190610a8c565b6040516020818303038152906040527f319af333000000000000000000000000000000000000000000000000000000007bffffffffffffffffffffffffffffffffffffffffffffffffffffffff19166020820180517bffffffffffffffffffffffffffffffffffffffffffffffffffffffff83818316178352505050506106d0565b5050565b6106cc828260405160240161064a929190610abc565b6040516020818303038152906040527f9710a9d0000000000000000000000000000000000000000000000000000000007bffffffffffffffffffffffffffffffffffffffffffffffffffffffff19166020820180517bffffffffffffffffffffffffffffffffffffffffffffffffffffffff83818316178352505050506106d0565b5050565b60008151905060006a636f6e736f6c652e6c6f679050602083016000808483855afa5050505050565b82805461070590610c97565b90600052602060002090601f016020900481019282610727576000855561076e565b82601f1061074057805160ff191683800117855561076e565b8280016001018555821561076e579182015b8281111561076d578251825591602001919060010190610752565b5b50905061077b919061077f565b5090565b5b80821115610798576000816000905550600101610780565b5090565b60006107af6107aa84610b2c565b610b07565b9050828152602081018484840111156107c757600080fd5b6107d2848285610c55565b509392505050565b600082601f8301126107eb57600080fd5b81356107fb84826020860161079c565b91505092915050565b60008135905061081381610d98565b92915050565b60006020828403121561082b57600080fd5b600082013567ffffffffffffffff81111561084557600080fd5b610851848285016107da565b91505092915050565b60006020828403121561086c57600080fd5b600061087a84828501610804565b91505092915050565b600061088f838361099c565b905092915050565b6108a081610c19565b82525050565b6108af81610c19565b82525050565b60006108c082610b6d565b6108ca8185610b90565b9350836020820285016108dc85610b5d565b8060005b8581101561091857848403895281516108f98582610883565b945061090483610b83565b925060208a019950506001810190506108e0565b50829750879550505050505092915050565b600061093582610b78565b61093f8185610ba1565b935061094f818560208601610c64565b61095881610d87565b840191505092915050565b600061096e82610b78565b6109788185610bb2565b9350610988818560208601610c64565b61099181610d87565b840191505092915050565b60006060830160008301516109b46000860182610897565b50602083015184820360208601526109cc828261092a565b91505060408301516109e160408601826109ec565b508091505092915050565b6109f581610c4b565b82525050565b610a0481610c4b565b82525050565b6000606082019050610a1f60008301866108a6565b8181036020830152610a318185610963565b9050610a4060408301846109fb565b949350505050565b60006020820190508181036000830152610a6281846108b5565b905092915050565b60006020820190508181036000830152610a848184610963565b905092915050565b60006040820190508181036000830152610aa68185610963565b9050610ab560208301846108a6565b9392505050565b60006040820190508181036000830152610ad68185610963565b9050610ae560208301846109fb565b9392505050565b6000602082019050610b0160008301846109fb565b92915050565b6000610b11610b22565b9050610b1d8282610cc9565b919050565b6000604051905090565b600067ffffffffffffffff821115610b4757610b46610d58565b5b610b5082610d87565b9050602081019050919050565b6000819050602082019050919050565b600081519050919050565b600081519050919050565b6000602082019050919050565b600082825260208201905092915050565b600082825260208201905092915050565b600082825260208201905092915050565b6000610bce82610c4b565b9150610bd983610c4b565b9250827fffffffffffffffffffffffffffffffffffffffffffffffffffffffffffffffff03821115610c0e57610c0d610cfa565b5b828201905092915050565b6000610c2482610c2b565b9050919050565b600073ffffffffffffffffffffffffffffffffffffffff82169050919050565b6000819050919050565b82818337600083830152505050565b60005b83811015610c82578082015181840152602081019050610c67565b83811115610c91576000848401525b50505050565b60006002820490506001821680610caf57607f821691505b60208210811415610cc357610cc2610d29565b5b50919050565b610cd282610d87565b810181811067ffffffffffffffff82111715610cf157610cf0610d58565b5b80604052505050565b7f4e487b7100000000000000000000000000000000000000000000000000000000600052601160045260246000fd5b7f4e487b7100000000000000000000000000000000000000000000000000000000600052602260045260246000fd5b7f4e487b7100000000000000000000000000000000000000000000000000000000600052604160045260246000fd5b6000601f19601f8301169050919050565b610da181610c4b565b8114610dac57600080fd5b5056fea2646970667358221220c2033a10cccd874a56d509b72f69540ca893a657b0b5c4aaacb4a107920a8ae964736f6c63430008040033",
  "linkReferences": {},
  "deployedLinkReferences": {}
}